:020000040800F2
:10000000380B00205502000847300008A1260008E0
:1000100045300008F5190008D13400080000000040
:100020000000000000000000000000000D34000887
:10003000F7190008000000000B3400080F34000816
:100040006F0200086F0200086F0200086F020008CC
:100050006F0200086F020008F91900086F0200081B
:100060006F0200086F0200086F0200086F020008AC
:100070006F0200086F0200086F0200086F0200089C
:100080006F0200086F0200086F0200086F0200088C
:100090006F0200086F0200086F0200086F0200087C
:1000A0006F0200086F0200086F0200086F0200086C
:1000B000B93400086F0200086F0200086F020008E0
:1000C0006F0200086F0200086F0200086F0200084C
:1000D0006F0200086F0200086F0200086F0200083C
:1000E0006F0200086F0200086F0200086F0200082C
:1000F0006F0200086F0200086F0200086F0200081C
:100100006F0200086F0200086F0200086F0200080B
:100110006F0200086F0200086F0200086F020008FB
:100120006F0200086F0200086F0200086F020008EB
:100130006F02000800000000000000006F020008CD
:100140006F0200086F0200086F0200086F020008CB
:100150006F0200086F0200086F0200086F020008BB
:100160006F0200086F0200086F0200086F020008AB
:100170006F0200086F02000800000000000000008D
:100180006F0200086F02000800F002F800F052F859
:100190000AA090E8000C82448344AAF10107DA45E2
:1001A00001D100F047F8AFF2090EBAE80F0013F0E2
:1001B000010F18BFFB1A43F001031847604100000C
:1001C00080410000103A24BF78C878C1FAD852079D
:1001D00024BF30C830C144BF04680C6070470000C1
:1001E0000023002400250026103A28BF78C1FBD840
:1001F000520728BF30C148BF0B607047662903F023
:100200000B84752900F02A81632900F0F484732996
:1002100000F0F984002070471FB503F0F8FB00F0F0
:10022000F7FC04000020002103F064FBE0601FBD28
:1002300010B510BD00F0F0FD1146FFF7EDFF03F023
:10024000DBFA00F00EFE03B4FFF7F2FF03BC00F090
:1002500051FE00000948804709480047FEE7FEE7D5
:10026000FEE7FEE7FEE7FEE7FEE7FEE7FEE7FEE766
:1002700004480549054A064B70470000A9340008A8
:100280008901000838050020380B002038070020BD
:100290003807002053EA020C00F069802DE9F04B8A
:1002A0004FF00006002B1FBFB3FA83F503FA05F4E5
:1002B00024FA05F65E4012BF1643B2FA82F502FA3E
:1002C00005F4C5F120051EBF22FA05FC44EA0C0422
:1002D000203556EA044C4FEA144418BF641C4FF012
:1002E00000084FF00009904271EB030C39D300294C
:1002F00019BFB1FA81F701FA07F6B0FA80F700FAF0
:1003000007F6C7F120071EBF20FA07FC46EA0C06D5
:100310002037B6FBF4FCA7EB0507103F07F01F0BD7
:10032000CBF120060CFA0BFB2CFA06F644BFB346C1
:100330000026202FA4BF5E464FF0000B5BEA060CA0
:1003400008BF4FF0010B19EB0B09ABFB027C48EB2C
:100350000608C01B06FB02CC0BFB03CC71EB0C01A7
:10036000C1E70B46024641464846BDE8F08B13B54F
:100370004FF000004FF00001AFF30080BDE81C40DB
:10038000704700000FB47CB50C0009AA009001D0A2
:100390002044401E084B7B4469460190089800F0B9
:1003A00000FC05461CB10020694600F00DFC284603
:1003B0007CBC5DF814FB00003908000070B50446F1
:1003C00085690068C10601D5302600E02026C007F7
:1003D00007D070BDD4E9012130469047206A401C07
:1003E00020626D1EF6D570BD70B504468569007833
:1003F000C00707D170BDD4E9012120209047206AB1
:10040000401C20626D1EF6D570BD70B50C460546C9
:10041000012A05D02878800600D5EA69002302E089
:10042000012305E05B1C934202D2E05C0028F9D175
:10043000A869E618C01AA861286A184428622846E4
:10044000FFF7BCFF04E0D5E9012114F8010B904748
:10045000B442F8D32846FFF7C7FF70BD2DE9F0413D
:100460000646002410687529314616A510D0AFF352
:100470000080002802DA404213A507E031688A07AD
:1004800001D512A502E0490704D511A5012401E018
:10049000AFF3008000210A2206F1240709E0B0FB37
:1004A000F2FCB0FBF2F302FB1C003030785418462B
:1004B000491C0028F3D123462A463046BDE8F041C6
:1004C00000F001B9000000002D0000002B0000002A
:1004D000200000002DE9F05F894604464FF0000A35
:1004E000DFF874B1FB44C0F820A02046E1688847DB
:1004F000002874D0252806D0D4E901219047206A2D
:10050000401C2062F1E700265F462046E1688847EC
:100510002028054607DB312D05D2781910F8200C6C
:1005200008B10643F1E7B00701D526F00406C4F888
:100530001CA00027C4F818A02A2D09D0284603F0D3
:1005400053F938B304EB8708303DC8F8185019E068
:1005500059F8041B204604EB87029161E168884743
:10056000012F054618D1E069002820DA26F0200680
:100570001DE0D8F8180000EB800005EB4000303893
:10058000C8F818002046E1688847054603F02CF9B2
:100590000028EED1012F0AD02E2D08D12046E16887
:1005A00088477F1C0546022F46F02006C4DBA06961
:1005B000002803DA404246F00106A061F00701D0AE
:1005C00026F010066C2D0BD0682D09D04C2D39D09B
:1005D0006A2D35D0742D35D07A2D33D016E038E021
:1005E000E1682F4620468847B842054609D16C2F5E
:1005F00026D04FF48060E1680643204688470546D0
:1006000004E06C2F1AD04FF4807006430DB3A5F1AF
:100610004100192802D8203546F400664A4629468A
:10062000204626604E46FFF7E9FD80B101280BD039
:10063000F61D26F0070000F1080956E74020E4E720
:100640008020D8E70020D6E706F104094DE72846C8
:1006500052E7206ABDE8F09F7E3D00004FF00002A7
:1006600000B5134694469646203922BFA0E80C50A8
:10067000A0E80C50B1F12001BFF4F7AF090728BF83
:10068000A0E80C5048BF0CC05DF804EB890028BFFF
:1006900040F8042B08BF704748BF20F8022B11F028
:1006A000804F18BF00F8012B7047704770477047A4
:1006B00010B500F0B1FA006810BD10B5044600F0A6
:1006C000ABFA046010BD2DE9F0470D4699469246FD
:1006D000044600F124080168880604D5E06921F089
:1006E0001001216000E00120A84201DD471B00E06D
:1006F0000027A1697A1902EB0900081AA061207885
:10070000C00602D42046FFF759FE002608E0D4E9CF
:1007100001211AF806009047206A401C761C2062CE
:100720004E45F4DB2078C0060AD52046FFF746FE8A
:1007300006E0D4E9012130209047206A401C206265
:10074000381EA7F10107F4DC07E0D4E9012118F80D
:1007500005009047206A401C2062281EA5F1010573
:10076000F3DC2046FFF740FE2078000602D5022089
:10077000BDE8F0870120FBE770472DE9FF4F0C46ED
:100780001E464FF0FF378BB0D2E90001DDF86080E4
:100790000A908A46C1F30A5505B93D46002108462C
:1007A0004FF00000BAF1000F00F4400005DA00EB52
:1007B00080004FF4400101EA50004FEA9059B9F12E
:1007C000010F00DDB9460A9850EA4A000ED044F6FF
:1007D0001050A5F2FF3545432F14B8F1000F1ED07D
:1007E0007542291E1EDDC9F100021CE0B8F1010F9F
:1007F0004FF0000001D0302103E0F24305E0215426
:10080000401CB042FBDB30460022002121540B99F2
:10081000C1F80880C1E900200FB0BDE8F08FBD1B12
:100820006D1CDEE74A4600DA694206A800F07EFA4F
:1008300006AB93E8070003AB83E8070050460A992C
:1008400000F05FFB8DE80700A0F500501F38009016
:100850000398002D0ADD42F21F014A460844002396
:1008600003A90390684600F0C8FD09E0A0F5005018
:100870004A461F38002303A90390684600F0D2FDC2
:100880008DE807000004000C03D04FF0FF30410852
:1008900000E01046B8F1000F03D000220092154688
:1008A0001EE0751E05D400F0BBF9303262556D1E96
:1008B000F9D5B3460122084302D000227F1C04E090
:1008C0002078302801D100227F1E002A099784D089
:1008D0001DE0112D07DA00F0A3F9303262556D1CCE
:1008E00050EA0102F5D1084302D00098C8B10EE0E9
:1008F0000021681E05E0235C625C63542254401EA4
:10090000491C8142F7DBAB46A81B401E0990002022
:1009100004F80B000B98099AC0F80880C0E9002B76
:100920007AE711264FF0000857E72DE9F04F884687
:100930000446D21D22F0070191B0D1E90001CDE9B2
:100940000A0102F0C6FD02460B98C00F01D02D200F
:1009500007E02068810701D52B2002E0202101EA71
:10096000C000032A099001D0072A05DB034641464F
:10097000204600F09BF90BE12078800601D5E06964
:1009800000E00620B8F1650F814606D0B8F1660F89
:1009900018D0B8F1670F70D131E00020B9F1110F14
:1009A000009001DB112301E009F101030AAA01A96A
:1009B0000CA8FFF7E2FEDDE90C70002609F1010545
:1009C000834647E001204B4600904FF000470AAABB
:1009D00001A90CA8FFF7D1FEDDE90DB00C995D4629
:1009E000002610B909F101000D18B9EB050003D478
:1009F000C0F1FF3609F10105A5EB09002BE0B9F1C3
:100A0000010F01DA4FF001090020B9F1110F009038
:100A1000484601DD112300E003460AAA01A90CA8FB
:100A2000FFF7ABFEDDE90C704D46002683462078CB
:100A300000070AD4AB4500DA5D4601A8012D04DDAC
:100A4000411911F8011C302907D04F4502DA17F17E
:100A5000040F04DA012082460FE06D1EEEE7002F3E
:100A600002DCED1B3E4403E0781CA84200DD7D1C47
:100A7000B81B00F1010A4FF000472078000703D4AB
:100A8000AA4501DB4FF0FF3A0021B7F1004F0DF10D
:100A900043088DF8431024D002202B23002F01DAC5
:100AA0007F422D230A21021EA0F1010000DC5FB16C
:100AB00097FBF1FC97FBF1F201FB1C7C17460CF154
:100AC000300C08F801CDEEE7A8F101000370218891
:100AD000090501D5452100E06521A0F1010800F8D4
:100AE000011C09980FA9A1EB0807FF1D00B1012007
:100AF000411901EBEA70A1693844081A401EA0614F
:100B00002078C00602D42046FFF758FC099828B187
:100B1000D4E901219047206A401C20622078C00659
:100B200022D52046FFF74AFC1EE0002E04DBB34529
:100B300002DD01A8805D00E03020D4E9012190476A
:100B4000206A401C2062761CAAF101005FEA000ABC
:100B50000AD100F05DF8C0680168405CD4E9012169
:100B60009047206A401C2062281EA5F10105DCDCAC
:100B700007E0D4E9012118F8010B9047206A401CD6
:100B80002062381EA7F10107F3DC2046FFF72CFC9A
:100B9000032011B041E6000001694A1C0261087897
:100BA000704700B58FB0CDE90131002105910549AD
:100BB0007944CDE9031011466846FFF78BFC0FB06E
:100BC00000BD0000E5FFFFFF0A6802F8010B0A60A4
:100BD0007047D1E900239A4202D2531C0B60107077
:100BE000704710B5436913B1AFF3008001E0FFF720
:100BF0000CFC012010BD127800F124010A700022C3
:100C00004A700122EDE711684FF0FF32E9E700007A
:100C100000487047F404002000487047D4040020C6
:100C200030B5B0F10A024FEA900E71F100034EEABE
:100C3000817EB0EB0E0061EB91014FEA101E4EEA8F
:100C4000017E10EB0E0041EB11114FEA102E4EEA1F
:100C5000016E10EB0E0041EB11214FEA104E4EEAEF
:100C6000014E10EB0E0041EB1141401841F1000123
:100C70004FEAD00040EA41704FEAD10110EB800505
:100C80004FEA810444EA907444EB01046D1944EB8B
:100C90000404521BA3414FF0000348BF0A3200D5A1
:100CA00030BD401C41F1000130BD00002DE9F04194
:100CB0001F46044603260168072A01F4006004DB8E
:100CC00008B116A505E016A503E008B115A500E0DA
:100CD00015A521F010002060A069C01EA0610FB111
:100CE000401EA0612046FFF769FB4FB1D4E9012106
:100CF00038469047206A401C2062C01C206206E0F3
:100D0000206AFAE7D4E9012115F8010B9047761E15
:100D1000F8D22046FFF768FBBDE8F0814E414E0057
:100D20006E616E00494E4600696E66002DE9F0471F
:100D3000814616468AB0354878440DC88DE80D00C6
:100D400032487844801C03AC0DC884E80D0041F69D
:100D50009B300844372190FBF1F290FBF1F5A5F1AF
:100D6000800501FB12041B3C02D56442012000E017
:100D70000020DFF898A080460027FA44AAF1BE0AB6
:100D80000EE0E0070AD03246684607EB4701012330
:100D90000AEB810100F046FB8DE8070064107F1C20
:100DA000002CEED1194F7F44AE3F19E0E80715D073
:100DB00007EB04100DF1180A90E80E008AE80E0007
:100DC000C068F04201D1981908903246012306A963
:100DD00003A800F027FB03AB83E807006D10641C39
:100DE000002DE3D14FF0010332466946B8F1000F00
:100DF00003A802D000F001FB01E000F013FBC9E9F9
:100E00000001C9F808200AB0BDE8F087B835000035
:100E100000487047D40400207546FFF7F9FFAE463E
:100E200005006946534620F00700854618B020B5F6
:100E3000FFF71EFABDE820404FF000064FF0000714
:100E40004FF000084FF0000B21F00701AC46ACE872
:100E5000C009ACE8C009ACE8C009ACE8C0098D46DF
:100E6000704710B50446AFF300802046BDE810403F
:100E7000FFF7E9B94FF0013C50F8042B51F8043B5F
:100E80009A4221D1A2EB0C03934313EACC1317D15E
:100E900050F8042B51F8043B9A4215D1A2EB0C03F5
:100EA000934313EACC130BD150F8042B51F8043BB5
:100EB0009A4209D1A2EB0C03934313EACC13DBD083
:100EC0004FF00000704700BFD01A01BAB1FA81F1AB
:100ED00001F0180122FA01F0CB40C1F12001DBB290
:100EE000C0B2C01A2CFA01F3D11A914311EAC3110E
:100EF000E6D1704701491820ABBEFEE7260002008C
:100F000070475FEA400C08BF91F0000F4FEA8C2356
:100F10004FEAC12243EA51514FEA1C5018BF00F575
:100F2000F0404FEA300018BF41F000415FEA6C5CCE
:100F300000F02980BCF1FF3F08BF40F080407047BF
:100F4000130C06BF12044FF0100C4FF0000C130EE0
:100F500004BF12020CF1080C130F04BF12010CF1B4
:100F6000040C930F04BF92000CF1020CD30F04BFCA
:100F700052000CF1010C11464FF00002A0F11F00CD
:100F8000A0EB0C00704711F0004F08BF704731F024
:100F900000413FF4D5AF0B0C06BF09044FF0100C15
:100FA0004FF0000C0B0E04BF09020CF1080C0B0FE4
:100FB00004BF09010CF1040C8B0F04BF89000CF174
:100FC000020CCB0F04BF49000CF1010CCCF1200343
:100FD000A0EB0C0022FA03F302FA0CF241EA03013F
:100FE00000F10100704720F07F4C80EA030023F0FD
:100FF0007F47ACEB070303F57C5300F0004003F19F
:10100000FF032DE980494FEA154B09B44FEA144319
:1010100025EA0B4E24EA03480FF2042606EB1327B9
:1010200049083E785FEA320203FB0667C7F500070E
:1010300007FB06F64FEA54374FEAD64606F102069A
:1010400007FB066CCCF1005C4FEA1C472CEA074C0E
:1010500007FB06F40CFB06F504EB15464FEA961663
:1010600034BF00204FF000404FEAD13706FB07FCA9
:101070004FEA1C4C0CFB0BF7D21B03FB0CF761EB8C
:1010800007010CFB0EF7B0EB074072EB17420CFBAD
:1010900008F734BFA2EB0742B2EB074261EB1741FE
:1010A0004FEA0C444FEA910706FB07FC4FEA1C4C41
:1010B0000CFB0BF7B0EBC74072EB573203FB0CF79E
:1010C00034BFA2EBC742B2EBC74261EB57310CFB16
:1010D0000EF7B0EBC70072EB57720CFB08F734BF8A
:1010E000A2EBC702B2EBC70261EB5771039F4FEA55
:1010F000816141EA921104EBCC044FEAD1374FEA07
:10110000826206FB07FC42EA90124FEA80604FEAD7
:101110001C4C0CFB0BF7D21B03FB0CF761EB07011C
:101120000CFB0EF7B0EB074072EB17420CFB08F715
:1011300034BFA2EB0742B2EB074261EB17414FEA23
:101140008C554FEA910704EB9C2406FB07FC4FEA01
:101150001C4C0CFB0BF7B0EBC74072EB573203FB98
:101160000CF734BFA2EBC742B2EBC74261EB573179
:101170000CFB0EF7B0EBC70072EB57720CFB08F7D5
:1011800034BFA2EBC702B2EBC70261EB577115EB9C
:101190004C254FEA816141EA92114FEA82624FEA9F
:1011A000D13742EA901206FB07FC44F100044FEAF3
:1011B00080604FEA1C4C0CFB0BF7D21B03FB0CF7B7
:1011C00061EB07010CFB0EF7B0EB074072EB174227
:1011D0000CFB08F734BFA2EB0742B2EB074261EB0E
:1011E000174115EB1C154FEA813141EA92414FEA54
:1011F000823242EA90424FEA80304FEA0C7644F164
:10120000000448EA03434EEA0B484FF0000EB2EBED
:10121000080C71EB030724BF624639464EEB0E0EF5
:101220004FF0000B0018524149414BEB0B0BB2EB56
:10123000080C71EB03077BF1000B24BF62463946B3
:101240004EEB0E0E4FF0000B0018524149414BEB94
:101250000B0BB2EB080C71EB03077BF1000B24BF07
:10126000624639464EEB0E0E51EA020718BF46F0B1
:10127000010616EB0E7655F1000254F1000103D57C
:10128000BDE88901BDE80088BDE88901BDE80048E6
:10129000B619524141EB0101A3F10103704780806F
:1012A0007F7E7D7C7B7A79787776767574737271C0
:1012B00071706F6E6E6D6C6C6B6A6A696868676678
:1012C00066656464636362616160605F5F5E5E5D0A
:1012D0005D5C5C5B5B5A5A5959585857575656557E
:1012E00055555454535352525251515050504F4FE0
:1012F0004F4E4E4D4D4D4C4C4C4B4B4B4A4A4A4930
:101300004949484848474747474646464545454472
:101310004444444343434342424242414141002BFF
:101320009C4630D477002BD01CB54FEA370703B466
:101330004FF010004FF01001BAF1000F06D0BCF1D1
:10134000000FDCBF40F0080040F008014FF0000043
:101350000FBCBDE810400BF1010BBBF1010F08BF42
:101360005FEA170722BF12F1010211F101014FF0EC
:10137000004143F1000300F0004043EA00007047E1
:10138000F9D35708D0E746EA064613F1400F4FEA73
:1013900016461FDD13F1200FDFBF16430A4600215A
:1013A00020335B42BED0C3F1200746EA064602FA6C
:1013B00007F74FEA164646EA0706C3F1200722FA66
:1013C00003F201FA07F721FA03F14FF0000342EAB2
:1013D0000702A7E746EA020646EA06464FEA16462D
:1013E00046EA0106BCBF46EA0646360C4FF000034B
:1013F0004FF000024FF0000194E72DE9804C9A462F
:10140000934670B491E8380007C831EA400C48BFF1
:1014100034EA430C03D5FFF7E6FDFFF780FFF0BC8D
:10142000BDE8008C2DE9804C9A46934670B491E853
:10143000380007C810F0804F08BF13F0804F03D169
:1014400000F005F8FFF76BFFF0BCBDE8008C20F062
:101450007F4780EA030023F07F4C07EB0C03A3F5E2
:101460007C5300F00040A3F1FE0392F0000F00F067
:10147000B38095F0000F00F077802DE901494FEA25
:1014800011404FEA144621EA004800FB06FC24EA1A
:10149000064708FB06F607FB08F800FB07F718EB02
:1014A00006484CEB164C4FEA124B18EB07484FEA34
:1014B00015464CEB174022EA0B4E0BFB06FC25EAC7
:1014C00006470EFB06F607FB0EFE0BFB07F71EEBAF
:1014D000064E4CEB164C4FF000061EEB074E4CEB45
:1014E000174B18EB0B0840F1000018EB0E0B58EBF4
:1014F000000840F100008F1A4FF000013CBFC943C3
:10150000661B14BFB5EB040C00213CBFC943F61B9E
:101510004FEA17444EEA8E0E27EA04454FEA1C476D
:1015200004FB07622CEA074C05FB07F70CFB05F6EA
:1015300004FB0CFC16EB074642EB174216EB0C467D
:1015400042EB1C421BEB060658EB0202414146EA05
:101550009E0601D5BDE80189B619524141EB010152
:10156000A3F10103BDE801894FEA14454FEA114791
:1015700024EA054621EA074C05FB07F406FB07F7BA
:101580000CFB06F105FB0CFC11EB074144EB174487
:101590004FEA124711EB0C4144EB1C4422EA074C82
:1015A00005FB07F206FB07F70CFB06F605FB0CFC38
:1015B00016EB074642EB174216EB0C4642EB1C4576
:1015C0006A1854F1000148BF7047B619524141EB07
:1015D0000101A3F10103704795F0000F37D04FEAE6
:1015E00011424FEA144721EA024624EA074C02FB63
:1015F00007F106FB07F70CFB06F402FB0CFC14EBEF
:10160000074441EB17414FEA154714EB0C4441EBFB
:101610001C4125EA074C02FB07F506FB07F70CFB0C
:1016200006F602FB0CFC16EB074645EB174516EBDE
:101630000C4645EB1C42121951F1000148BF70479E
:10164000B619524141EB0101A3F1010370474FEA82
:1016500014454FEA114724EA054621EA074C05FBE9
:1016600007F106FB07F70CFB06F24FF0000605FB3F
:101670000CFC12EB074241EB174112EB0C4251EB11
:101680001C4148BF7047921841EB0101A3F10103CF
:101690007047000010B51B4C00222DED028B4FF45B
:1016A0008071204600F0C1FC00220221164800F0A3
:1016B000BCFC00224021204600F0B7FC134C4FF444
:1016C0000450208000F0FCF80021084600F030F8BB
:1016D0000021012000F02CF89FED0D8A0020B0EED3
:1016E000480A00F071F8B0EE480A012000F06CF8EA
:1016F0004FF400502080BDEC028BBDE8104000F09C
:10170000DFB8000000000240000802402400002072
:1017100000000000054900F03A000A8822F49D729A
:10172000104340F40050088000F0CAB824000020A4
:1017300070B5194C05460E462088810404D440F447
:101740000050208000F0BCF86268002A23D03109E4
:1017500034075008201841F100010023FEF79AFDDC
:10176000B0F1805F01D36FF07040012D10D04FF4C5
:10177000804400BFC0F30D012143C0F38D3004430A
:10178000084600F063F82046BDE8704000F05EB8FF
:101790004FF40044EEE770BD24000020002801D083
:1017A00001494860704700002400002005490A886C
:1017B00010B122F0C00001E042F0C000088000F04B
:1017C0007FB8000024000020DFED160A02E000BF11
:1017D00030EE200AB5EEC00AF1EE10FAF8D3124A44
:1017E00010EE101A914202DB30EE600AF8E79FED2E
:1017F0000F1A012820EE010A80EE201AB6EE000A28
:1018000031EE000ABCEEC00A10EE101AC1F30B0153
:1018100004D041F4404000BF00F018B841F46040EB
:10182000FAE700000000B4430000B4430000804524
:1018300005490A8810B142F4807001E022F48070FA
:10184000088000F03DB80000240000202DE9F041A0
:101850001A4E044601222021304600F0E6FB002209
:101860001021304600F0E1FB00254FF6FF77200401
:1018700001D5012200E000228021304600F0D5FB96
:1018800000222021304600F0D0FB00BF01222021A1
:10189000304600F0CAFB6D1CEDB207EA4404102D7F
:1018A000E5D301221021304600F0BFFB3046BDE8F1
:1018B000F0410022802100F0B8BB0000000002408F
:1018C00001480088FFF7C2BF24000020464910B538
:1018D0004A6822F440324A604A6843681A434A60C0
:1018E00001684A6822F480724A6001684A680369A4
:1018F00042EA03224A6001684A6822F040724A6064
:1019000001684A6883681A434A6001688A6822F459
:1019100000628A6001688A68C3681A438A60816AC3
:101920006FF07062D14201688A6822F070628A604A
:1019300001688A680CD0836A1A438A6001688A68E1
:1019400022F040528A6001688A68C36A1A4301E043
:1019500022F040528A6001688A6822F002028A609E
:1019600001688A68037E42EA43028A6090F8201088
:10197000002901684A680FD042F400624A60016899
:101980004A6822F460424A6001684A68174C436A18
:1019900004EB43331A4301E022F400624A60016819
:1019A000CA6A22F47002CA620168CA6A838B104C48
:1019B00004EB03531A43CA6201688A6822F4007276
:1019C0008A6001688A6890F8303042EA43228A606F
:1019D00001688A6822F480628A6001688A684069C6
:1019E00042EA8020886010BD0023014000E0FFFF34
:1019F0000000F0FFFEE77047012000F00DBA72B65C
:101A0000FEE7000078B50024009490F83C20012AFD
:101A100019D0012280F83C200A6807230568092AAA
:101A200013D9EE680A3A02EB420293409E43EE60FD
:101A30000B788A680A3B03EB43039A400368DD682E
:101A40002A43DA6010E0022078BD2E6902EB4202E0
:101A500093409E432E610B788A6803EB43039A40C0
:101A600003681D692A431A614A681F23072A13D293
:101A700005686E6B521E02EB820293409E436E63BA
:101A80000B790A885B1E92B203EB83039A400368CA
:101A90005D6B2A435A6327E005680D2A12D22E6B2C
:101AA000D21F02EB820293409E432E630B790A8879
:101AB000DB1F92B203EB83039A4003681D6B2A433A
:101AC0001A6311E0EE6A0D3A02EB820293409E43E4
:101AD000EE620B790A880D3B92B203EB83039A40C6
:101AE0000368DD6A2A43DA62164B0568144A9D4290
:101AF00006D10D68122D03D1556845F48005556057
:101B000005689D4218D10B68102B01D0112B13D101
:101B1000536843F400035360096810290CD10A4943
:101B20000A4A0968B1FBF2F101EB8101490000E0CA
:101B3000491E00910029FBD180F83C40002078BD6F
:101B400000230140002001403800002040420F00E7
:101B50000068C06C704770B504004FF0000503D0FA
:101B6000206C002610B107E0012070BD204600F077
:101B70001DF8666484F83C60206CC00610D4206CAC
:101B800020F4885040F0020020642046FFF79EFEBB
:101B90006664206C20F0020040F00100206400E048
:101BA000012584F83C60284670BD000010B586B061
:101BB000044614216846FEF751FD11492068884209
:101BC0001CD110480021026842F480720260006853
:101BD00000F4807005900B481438026842F001024E
:101BE0000260006800F0010005900C2000900320C6
:101BF000CDE901016946044800F01AF906B010BDAC
:101C00000020014044380240000002402DE9F0412C
:101C1000044600680D4681684FF0000749050BD562
:101C20008068C00508D5206C40F02000206484F84E
:101C30003C700120BDE8F08100F0FCF9064613E09D
:101C4000681C11D025B100F0F5F9801BA8420BD912
:101C500020680068800707D4206C40F004002064EE
:101C600084F83C700320E5E7206800688007E7D52A
:101C700021686FF012000860206C40F4007020644E
:101C80002068816811F0405F13D1217E89B9C16A53
:101C900011F4700F02D0806840050AD4206C20F443
:101CA00080702064206CC00403D4206C40F00100DC
:101CB00020640020BEE7000018B50021009190F8D4
:101CC0003C20012A07D0012280F83C20026893685A
:101CD000DB0702D011E0022018BD936843F0010336
:101CE00093602E4A2E4B1268B2FBF3F202EB4202D3
:101CF00000E0521E0092002AFBD102689368DB07C5
:101D000042D0036C40F20164A34343F48073036444
:101D100053685B0505D5036C23F4005343F48053EB
:101D20000364036CDB0404D5436C23F006034364B3
:101D300000E0416480F83C101A496FF02203136000
:101D400049680068CA06184906D0884224D18168CB
:101D500011F0405F13D01FE08842F8D0134A904240
:101D600003D1D1F80423D206F1D0114A904213D105
:101D7000D1F8041301F01F011029E8D30CE08168A9
:101D800041F08041816007E0016C41F01001016485
:101D9000416C41F001014164002018BD3800002071
:101DA00040420F000023014000200140002101407B
:101DB0000022014090F83C1001290CD0012180F84C
:101DC0003C1001688A6822F001028A600168896813
:101DD000C90702D007E002207047016C21F4885146
:101DE00041F001010164002180F83C100846704771
:101DF00070B5044600F01EF90546601C02D0044888
:101E00000078044400F016F9401BA042FAD370BDDC
:101E10002C00002070470000044910B50A680242F7
:101E200002D00860FFF7F6FF10BD0000143C01402F
:101E30002DE9F84FDFF8BCA10022012503264FF061
:101E40000F090AF1040BAAF1040E00BF0B6805FA92
:101E500002F42340A34270D10F7907F00307012F4A
:101E600001D0022F16D187684FEA420806FA08FC13
:101E700027EA0C07D1F80CC00CFA08FC4CEA070C56
:101E8000C0F808C04768A7430C79C4F30014944015
:101E90003C4344600C79E443A4070AD0C4684FEA89
:101EA000420C06FA0CF7BC438F6807FA0CF727437D
:101EB000C7600C7904F00304022C12D1D40800EBA3
:101EC000840CDCF820405707FF0E09FA07F824EAD3
:101ED0000804D1F8108008FA07F848EA0408CCF89A
:101EE000208004684FEA420C06FA0CF7BC430F79D5
:101EF00007F0030707FA0CF7274307604C6814F450
:101F0000403F70D03C4C276847F4804727602468E6
:101F100022F0030704F480440094384C07EB040CCF
:101F2000DCF8084897074FEA177809FA08F7BC4326
:101F3000334FB84202D1002724E054E0314FB84279
:101F400001D101271EE0304FB84201D1022719E02C
:101F50002E4FB84201D1032714E02D4FB84201D1D2
:101F600004270FE02B4FB84201D105270AE02A4F82
:101F7000B84201D1062705E0284FB84201D1072712
:101F800000E0082707FA08F72743CCF80878DAF8C2
:101F900000405746D1F804C09C435FEACC2C00D5E2
:101FA0001C433C60DBF800405F46D1F804C09C4312
:101FB0005FEA8C2C00D51C433C60DEF8004077467D
:101FC000D1F804C09C435FEA8C3C00D51C433C60C4
:101FD000084F083F3C68D1F804C09C435FEACC3C02
:101FE00000D51C433C60521C102AFFF42FAFBDE803
:101FF000F88F0000083C01404438024000300140A6
:10200000000002400004024000080240000C0240B0
:10201000001002400014024000180240001C024060
:102020000069084000D0012070470AB18161704703
:102030000904FBE701488068704700002C0000207D
:102040000248816802781144816070472C000020AA
:102050000B4810B5016841F400710160016841F45A
:1020600080610160016841F480710160032000F02B
:102070006FF80F2000F006F800F024F8002010BDE3
:10208000003C024070B50D4D04464FF47A7128783B
:10209000B1FBF0F00A490968B1FBF0F000F0ECFA8E
:1020A00048B9102C07D200222146501E00F030F80B
:1020B00000206C6070BD012070BD00002C0000206D
:1020C000380000200A4808B5016841F480410160E9
:1020D000006800F4804000900548001F016841F04E
:1020E00080510160006800F08050009008BD000041
:1020F00044380240002809DB00F01F020121914012
:102100004009800000F1E020C0F800117047000095
:10211000F0B40E4B1B680C46C3F30223C3F1070552
:10212000042D00D90425191D072901D2002300E040
:10213000DB1E012606FA05F1491E214099409E400A
:10214000761E16403143F0BC01F0EEB90CED00E014
:10215000064900F0070208684FF6FF03184040EAFE
:102160000220034A10430860704700000CED00E0B5
:102170000000FA052DE9F0470E46050065D0DFF8AE
:102180001481D8F80000F7B200F00700B04207D27F
:1021900088F80070D8F8000000F00700B04254D171
:1021A00028683D4C810712D5400703D5206840F4CC
:1021B000E05020602878000703D5206840F4604094
:1021C00020602068A96820F0F0000843206028788B
:1021D000C0072DD0304968680839012812D002287C
:1021E00013D0032811D00968890700292DDA216846
:1021F00021F0030101432160FFF71CFF814641F2FA
:10220000883A0EE009688903EFE709688901ECE77D
:10221000FFF710FFA0EB0901514502D90320BDE8EB
:10222000F0872068696800F00C00B0EB810FEFD1F7
:10223000D8F80010404601F00701B14207D90770F5
:10224000006800F00700B04201D00120E7E72878DD
:10225000400705D52068E96820F4E0500843206075
:102260002878000706D52068296920F4604040EAF4
:10227000C100206000F018F82168084AC1F303117A
:10228000515CC8400649086006480068FFF7FAFE3E
:102290000020C4E7003C02400838024056420008D3
:1022A0003800002030000020154810B5006810F0FC
:1022B0000C02144813D01449042A0FD0082A0ED156
:1022C0000F4C241F2268236802F03F025B0207D5EF
:1022D0002068C0F38810A0FB010106E0084610BD8D
:1022E0002168C1F38811A1FB00010023FDF7D2FF93
:1022F0002168C1F30141491C4900B0FBF1F010BD58
:10230000083802400024F400001BB7002DE9F84F04
:1023100004006ED02078DFF84C93C007A9F10405C3
:102320004AD009F104000168C1F38101012908D0F4
:102330000068C0F3810002280AD1D9F800004002E9
:1023400006D52868800337D560680028E1D033E0DF
:102350006068B0F5803F10D0B0F5A02F286810D08D
:1023600020F480302860286820F48020286060688D
:10237000A8B1FFF75FFE06460DE0286840F4803004
:10238000F4E740F480202860F7E700BFFFF752FE33
:10239000801B642873D828688003F7D50CE0FFF70A
:1023A00049FE064605E000BFFFF744FE801B642897
:1023B000F0D828688003F7D42078DFF8AC82800753
:1023C0004FF0000A3ED5A748001D016811F00C0F20
:1023D00008D00068C0F3810002280BD1D9F80000B2
:1023E000400207D42868800716D5E068012800D18C
:1023F00012E033E1E068B8B10120C8F80000FFF74F
:1024000019FE064605E000BFFFF714FE801B0228F8
:10241000C0D828688007F7D52868216920F0F8001F
:1024200040EAC10028600DE0C8F800A0FFF702FEF6
:10243000064604E0FFF7FEFD801B02281FD828682F
:102440008007F7D42078000722D5864F8748616936
:10245000703771B101210160FFF7ECFD064604E021
:10246000FFF7E8FD801B022809D838688007F7D5F8
:102470000EE0C0F800A0FFF7DDFD064605E082E0B3
:10248000FFF7D8FD801B02287DD838688007F7D475
:102490002078400768D5DFF8CCB100270BF13C0B62
:1024A000DBF80000C0000BD4DBF8001041F08051D5
:1024B000CBF80010DBF80000012700F080500090FE
:1024C0006B4E3068C00510D4306840F480703060C6
:1024D000FFF7B0FD009005E0FFF7ACFD0099401A52
:1024E000022850D83068C005F6D55E4EA0686C361C
:1024F00001280FD00528306810D020F0010030608E
:10250000306820F004003060A068B8B1FFF792FD99
:1025100000900FE0306840F00100F4E740F0040064
:102520003060F7E7FFF786FD0099411A41F28830E5
:10253000814266D830688007F4D50EE0FFF77AFD57
:10254000009007E0FFF776FD0099411A41F28830CC
:10255000814256D830688007F4D42FB1DBF80010E0
:1025600021F08051CBF80010A069C8B33D49091D86
:102570000968C1F3810102294AD00228504607D0D8
:10258000C8F8600000E03CE0FFF754FD04463BE083
:102590004746C8F86000FFF74DFD064605E000BF5E
:1025A000FFF748FD801B02282BD828688001F7D44C
:1025B000D4E907010843A16A2E4A490802EB014108
:1025C000626A41EA8211084394F82C1040EA0161E2
:1025D000C9F8001001203866FFF72CFD044606E01C
:1025E0003EE000BFFFF726FD001B022809D828683F
:1025F0008001F7D534E000BFFFF71CFD001B022867
:1026000002D90320BDE8F88F28688001F4D427E0C0
:102610000128F7D0D9F80000E26900F48001914266
:102620001CD1226A00F03F01914217D147F6C071D8
:10263000626A0140B1EB821F10D1A26A4FF0FF33F2
:1026400000F4403103EB5202B1EB024F06D194F893
:102650002C1000F07060B0EB016F01D00120D1E7C9
:102660000020CFE70438024000004742800E474276
:10267000007000400000FFFF10B5401EB0F1807FE9
:1026800001D3012010BD4FF0E02460610F216017DD
:1026900000F04AFF0020A06107202061002010BD4B
:1026A000FEE7000000EE100ADFED050A9FED051AB7
:1026B000B8EE400A60EE200A80EE810A7047000002
:1026C0003333534000F07F4570B5194C0122114659
:1026D0002046FFF7AAFC002202212046FFF7A5FCB6
:1026E000144D00224FF400512846FFF79EFC0122B2
:1026F000160331462846FFF798FC0122D1032846ED
:10270000FFF793FC0022B1002846FFF78EFC002261
:1027100031462046FFF789FC0122D1022046FFF70F
:1027200084FC00222115BDE870400348FFF77DBC02
:1027300000000240000402400008024070B5FFF7AC
:1027400079FC1E4E044610213046FFF769FC054611
:102750004FF400513046FFF763FC19490246C8792F
:10276000854201D0CD714C6148690123201A1E2891
:1027700009D30D7AC879854205D0087218B98878CE
:10278000C8B100208870487A824201D04A728C61B8
:102790008869201A1E280DD38A7A487A824209D085
:1027A0008872002806D1CB700879401C00F0030025
:1027B00008718B7070BD8B70E5E700000008024067
:1027C000000000202DE9F047FFF734FC304C0546AF
:1027D000E0786179884203D12079A17988420AD0D2
:1027E000E07860712079A071E07820B1207900F064
:1027F000030000F03FFAE068A046281A45D44027BD
:1028000000242646A1462348FFF756FA08B1484659
:1028100015E00A211F48FFF7F9F900281D4802D0EA
:10282000FFF7C8FAF3E7FFF793F904441948FFF7F5
:10283000C1FA761CBE42E6D3B4FBF7F080B2164E66
:10284000A6F84800756498F80110444626F811006F
:10285000FFF728FFDFED110A607830EE600A06EB23
:10286000800181ED020AE17809B1207900E0401C85
:1028700010F0030404D100F065FAB06B401CB063A3
:102880002046BDE8F04700F0F5B9BDE8F08700004C
:10289000000000208C0000203C0000203333D33F98
:1028A00030B587B0FFF7C6FB894C2169411A7CD44B
:1028B000884DFA30206195ED0C0AB5EEC00AF1EEB4
:1028C00010FA01D2B1EE400AE07AD5ED0D0A0028E7
:1028D0006CD094ED071AF5EE001A30EE410A00EEC6
:1028E000211A84ED071A94ED080A70EEC00A00EE72
:1028F000A10A84ED080A00BF00F0A6FBA07800281A
:102900007ED02079744900F0030074A251F8203081
:10291000122102A8FDF736FD0021062302AA08466F
:1029200000F0F8FC207900F0030035F81000FFF704
:10293000B9FE10EE100A00F0F9FFCDE900016AA21D
:10294000122102A8FDF71EFD062302AA092100207C
:1029500000F0E0FC95ED020A10EE100A00F0E6FF30
:10296000CDE9000163A2122102A8FDF70BFD0623A9
:1029700002AA1221002000F0CDFC95ED030A10EE12
:10298000100A00F0D3FFCDE900015DA2122102A8D8
:10299000FDF7F8FC062302AA1B21002000F0BAFC78
:1029A00095ED040A10EE100A01E08FE021E000F03E
:1029B000BDFFCDE9000155A2122102A8FDF7E2FCFE
:1029C000062302AA2421002000F0A4FC95ED050AAC
:1029D00010EE100A00F0AAFFCDE900014EA212216C
:1029E00002A8FDF7CFFC06232D2102AA002069E0F2
:1029F00006E084ED070AC4ED080A0120E0727BE7D7
:102A00000021082347A2084600F084FC082348A2BE
:102A10001021002000F07EFC94ED070A454910EEDD
:102A2000100A884209DB9FED441AC0EE010A10EE3D
:102A3000900A00F07BFF41A204E010EE100A00F0C3
:102A400075FF40A2CDE90001122102A8FDF79AFC12
:102A50001021082302AA084600F05CFC08233BA2D0
:102A60002021002000F056FC206A00F05FFFCDE935
:102A7000000138A2122102A8FDF784FC082302AA53
:102A80002021302000F046FC082334A23021002011
:102A900000F040FCA86B95F84D1009B1512100E001
:102AA0005021CDE9001095F84C0008B1562300E004
:102AB00049232CA2122102A8FDF764FC082302AAD4
:102AC0003021282000F026FC00F03AFC07B030BD91
:102AD000000000203C0000201C3A0008444247202F
:102AE000463A2573000000004144433A252B352E19
:102AF000336600005630203A252B362E3366000010
:102B00005639303A252B362E336600004930203AAC
:102B1000252B362E336600004939303A252B362EC8
:102B2000336600004C435220316B487A00000000AD
:102B3000523A000000007A4400007A4425362E32D2
:102B4000666B000025372E31660000005068617307
:102B5000653A0000252B362E326600004D6F646505
:102B60003A00000025632025632025356C750000A0
:102B700010F0030008D0012808D0022809D04FF037
:102B800040700549086070470448FAE74FF4407008
:102B9000F7E70348F5E700001804024000020001CF
:102BA0000001000238B51348002404700078FFF7D4
:102BB000DFFF1148016841F001010160006800F089
:102BC000010000904FF08040046053218162F921A0
:102BD000C1624462012141610461C16080210160E0
:102BE000002204211C20FFF793FABDE838401C2086
:102BF000FFF780BA00000020403802400448017806
:102C0000491C01F0030101700078FFF7B1BF00001B
:102C10000000002010B5040001D0012200E00022D5
:102C20004FF400610548FFF700FA0CB1012000E005
:102C30000020034981F84C0010BD0000000802404C
:102C40003C00002010B5040001D0012200E0002269
:102C50004FF480610548FFF7E8F90CB1012000E06E
:102C60000020034981F84D0010BD0000000402401F
:102C70003C00002070B504000F4D10486C7080F8C7
:102C80004B4006D0012C09D0022C4FF0000006D199
:102C900000E00120FFF7BEFF002003E00120FFF766
:102CA000B9FF0120FFF7CEFF204600F009F8FFF73B
:102CB000C1F9B430E86070BD000000203C00002085
:102CC0002DE9F041054601282AD0032D28D0002007
:102CD0008046EFF3108672B64FF0804421684FF6BD
:102CE000FE7001402160E1680140E160002727613A
:102CF0000120FEF79DFD114981F800800878FFF75B
:102D000037FF67622761E06840F00100E060002063
:102D1000FEF78EFD206840F00100206016B102E051
:102D20000120D5E762B6064C84F84A50FFF782F9D5
:102D30002064E06B401CE063BDE8F08100000020EF
:102D40003C00002010B5374C374994ED020A84ED61
:102D5000060A94ED030A84ED070A94ED040A84ED53
:102D6000080A94ED050A84ED090A94ED080AD4EDE9
:102D7000080A94ED091A20EE200AD4ED090A00EEA3
:102D8000810A10EE100A884208DA9FED280A84EDC5
:102D90000A0A84ED0B0A84ED0C0A3FE0D4ED060A22
:102DA00094ED081AD4ED091A94ED092A60EE810A0F
:102DB00094ED071A41EE210AD4ED081A80EE801A2C
:102DC000D4ED070A60EEA11AD4ED060A40EEC21A4D
:102DD000C1EE800A9FED160A21EE001A84ED0A1A50
:102DE00020EE800A84ED0B0A94ED0A0AD4ED0A0A5B
:102DF00094ED0B1A20EE200AD4ED0B0A00EE810AA6
:102E000000F0CAFC84ED0C0AD4ED0A0A94ED0B0A1A
:102E100000F09AFBDFED070A20EE200A84ED0D0A90
:102E200010BD00003C000020CCBC8C2B000000003A
:102E300000007A44E12E65421FB50021164800913A
:102E400001910291134A039102604FF48032C0E96C
:102E500001210161017680F82010104AC0E90A21A1
:102E60000124C461C16080F830104461FEF773FE34
:102E700008B1FEF7C4FD0320CDE90004072002904D
:102E800069460548FEF7BEFD002801D0FEF7B7FDF4
:102E90001FBD0000002001408C0000200100000F39
:102EA0002DE9F04786B014216846FDF7D7FB60484E
:102EB0000024016841F004010160016801F004018F
:102EC0000591016841F080010160016801F0800115
:102ED0000591016841F001010160016801F0010103
:102EE0000591016841F002010160016801F00201F1
:102EF0000591016841F0080101600068DFF8348144
:102F000000F008000590002241F222714046FFF7D0
:102F10008CF8494F002249F6E3113846FFF785F84F
:102F2000012210213846FFF780F8DFF810A10022B7
:102F30004FF2D8715046FFF778F80122D10240468F
:102F4000FFF773F8DFF8F890012204214846FFF7F5
:102F50006CF801254FF444100095CDE90104694651
:102F60004046FEF765FF10208DE831006946404677
:102F7000FEF75EFF68038DE8310069464046FEF7C4
:102F800057FF41F622700090CDE901546946404652
:102F90000394FEF74DFF49F653100090CDE901541C
:102FA000694638460394FEF743FFA0200226CDE988
:102FB0000005CDE9024669463846FEF739FF4CF276
:102FC00018400090CDE90154694650460394FEF73D
:102FD0002FFF4FF44C50CDE90005CDE9024669467C
:102FE0005046FEF725FFC027CDE9007469464046EC
:102FF0000294FEF71DFF04200090CDE901546946BC
:1030000048460394FEF714FF01AA1120009782E8B6
:10301000610069465046FEF70BFF0022052106209D
:10302000FFF776F80620FFF765F806B0BDE8F087F1
:103030003038024000080240000002400004024014
:10304000000C0240FEE7FEE710B50021074C0A46DF
:10305000002004EBC1131A54401CC0B28028FAD3DC
:10306000491CC9B20829F3D310BD0000D4000020C8
:10307000F0B57F282AD83F2928D88418802C02D977
:10308000C0F18002D2B2CC18402C02D9C1F1400369
:10309000DBB20126DFF838E087180B4414E001F0BA
:1030A000070206FA02F5CA0804460EEBC21207E050
:1030B00012F804C02CEA050C02F804C0641CE4B247
:1030C000A742F5D8491CC9B28B42E8D8F0BD000030
:1030D000D400002010B500204FF47A720021491C62
:1030E0009142FCD3401C9042F8D3012000F03CF9FF
:1030F000BDE81040012000F04BB970B50024064631
:10310000802525FA04F0304000D0012000F040F97D
:10311000012000F029F9002000F026F9641CE4B237
:10312000082CEED3012000F01FF9BDE8704000200C
:1031300000F01AB910B5012000F02AF9012000F0C2
:1031400013F9002000F024F9BDE81040002000F041
:103150000BB910B5002000F01BF9012000F004F9B4
:10316000BDE81040012000F013B910B5FFF7B2FF21
:10317000AE2000F021F9D52000F01EF9802000F0EB
:103180001BF9A82000F018F93F2000F015F9D32012
:1031900000F012F9002000F00FF9402000F00CF9C7
:1031A000A12000F009F9C82000F006F9DA2000F0AB
:1031B00003F9122000F000F9812000F0FDF8CF2083
:1031C00000F0FAF8D92000F0F7F8F12000F0F4F858
:1031D000DB2000F0F1F8302000F0EEF8A42000F041
:1031E000EBF8A62000F0E8F88D2000F0E5F81420B8
:1031F00000F0E2F8AF2000F0DFF8FFF725FFBDE8B0
:10320000104000F09DB810B50C4640F0B00000F042
:10321000D3F8102040EA141000F0CEF804F00F00AC
:10322000BDE8104000F0C8B808B5082B0DD0062B3B
:103230000AD10A4B02EB420203EB4202C03A00926F
:103240000823062200F00EF808BD054B03EB02121E
:10325000A2F50072102300920822F3E71C40000838
:103260002C3A00082DE9FC4F1F4615460C46064631
:103270007F284BD83F2C49D8FFF7FAFE791ECA1792
:10328000002001EB52710122DFF884B004F007093D
:1032900002EBE10238E0002332E0F1187F2931D857
:1032A00000EBD40ABAF1070F30D80BEBCA1E1EF898
:1032B000017010FB05FCCDF804C0DDF82C809844AB
:1032C000CDF800801CF808C00CFA09FC47EA0C078E
:1032D0000EF801700AF10107072F0FD80EEB010855
:1032E000DDE900C198F8807011F80CC0C9F108013F
:1032F0002CFA01FC47EA0C0788F880705B1CDBB2F3
:10330000AB42CAD3401CC0B28242C4DCBDE8FC8FD1
:10331000D40000202DE9F0411E4615468846074698
:10332000002408E014FB0670C0B233464146FFF7A4
:103330007BFF641CE4B22A5D002AF3D1BDE8F08172
:1033400070B5084D002400212046FFF75CFF05EB17
:10335000C410802100F041F8641CE4B2082CF2D3C0
:1033600070BD0000D400002008B502464021074887
:10337000FEF75BFE002002E0BDF80000401CADF847
:103380000000BDF800000328F6D308BD0004024089
:1033900008B5024680210748FEF747FE002002E0FC
:1033A000BDF80000401CADF80000BDF80000032887
:1033B000F6D308BD0004024010B50446FFF7BAFE7C
:1033C0007820FFF79AFE0020FFF797FE2046FFF7D0
:1033D00094FEBDE81040FFF7BCBE70B50D46064632
:1033E000FFF7A8FE7820FFF788FE4020FFF785FE54
:1033F000002404E0305DFFF780FE641CE4B2AC42C0
:10340000F8D3BDE87040FFF7A4BE70477047FEF7E1
:1034100017BE000030B593B030216846FDF71EF9A5
:1034200014210CA8FDF71AF91D480025016841F088
:1034300080510160006800F08050119019480168C7
:1034400041F4804101600068022400F48040119042
:1034500001200090000401908001CDE90640062083
:103460000890A820CDE9090404200B906846FEF7D7
:103470004DFF08B172B6FEE70CA90F2081E83100BC
:103480004FF4A0500F904FF48050109005210CA8DD
:10349000FEF770FE002801D072B6FEE713B030BD13
:1034A00040380240007000400248016841F4700159
:1034B0000160704788ED00E04FF080400169C90766
:1034C00005D0016921F001010161FFF797BB704749
:1034D000FEE703B401984100009850EAC12018BFEC
:1034E00004204A0D18BF40F0010040F2FF72B2EB19
:1034F000515F08BF40F00200012808BF052002B05C
:1035000070474100080218BF04200A0E18BF40F09F
:1035100001004FF07F4232EA010108BF40F0020093
:10352000012808BF052070470907090E002804DBA1
:1035300000F1E02080F80014704700F00F0000F167
:10354000E02080F8141D704710EE100A10B510EE40
:10355000901A4FF0684202EB40032DED028BB3F15D
:10356000654F3CBF02EB4102B2F1654F7CD200BF18
:10357000C0F3C753C1F3C7529A1A1B2A09DD10F0D2
:10358000004F14BF9FED6E0A9FED6E0ABDEC028BDB
:1035900010BD12F11A0F1BDA11F0004F09D010F014
:1035A000004F0CBF9FED680A9FED680ABDEC028BCF
:1035B00010BD80EE208A18EE100AFFF7A2FF042843
:1035C00008BF00F009F9B0EE480ABDEC028B10BD4F
:1035D0004200B2EB410F37D910F0004F19BFDFEDB9
:1035E0005C1A9FED5C1ADFED5C1A9FED5C1AB0EE81
:1035F000602A0A46F1EE400A80F00041B0EE420A2D
:1036000010460A1A5200B2F1807F34D2484010F0BE
:10361000004FDFED532A9FED533A1DBFBEEE002A47
:1036200071EEE21A31EE431AB6EE002A04BF71EED3
:10363000A21A31EE031AF0EE402A42EE602A40EE62
:10364000020A82EEA02A18E011F0004F04BF9FED9D
:10365000461AF0EE411AD4D010F0004F1CBFDFED37
:10366000431A9FED431A00E026E004BFDFED411A44
:103670009FED411AC5E780EE202A22EE020ADFED17
:103680003F0ADFED3F2ABDEC028B40EE202ADFED42
:103690003D0A40EE220ADFED3C2A40EE202ADFED13
:1036A0003B0A40EE220A22EE000A00EE201A31EE1A
:1036B000020A30EE210A10BD4FF07F42B2EB400FFC
:1036C00028BFB2EB410F05D2BDEC028BBDE8104024
:1036D00000F07FB840EA01035B0008BF41F0FF4102
:1036E0000BD0B2EB400F08BFB2EB410F08D120F076
:1036F000804000EE100A21F0804100EE901A37E77A
:10370000B2EB400F12BF5FEA410240F0FF4001F010
:1037100000413FF42DAF4A0092EA40033FF528AF45
:10372000002AACBF9FED1A1A9FED1A1A20EE010A6B
:1037300060EE810A10EE100A10EE901A18E70000F1
:10374000DB0FC9BFDB0FC93FDB0F4940DB0F49C0AF
:103750000000C9BF22AAFDB90000C93F22AAFD3955
:103760000060ED3EC30ACE3700000000000049C0F3
:1037700022AA7DBA0000494022AA7D3A2DAD65BD3E
:103780008FB8D53D0FB511BE61C84C3EA8AAAABEE0
:103790000000804F0000802F10B52DED028BB1EEA0
:1037A000C08A18EE100A20F00040C0F1FF40C00FA0
:1037B0000AD010EE100A20F00040C0F1FF40C00F08
:1037C00004BF0120FCF779FFB0EE480ABDEC028B84
:1037D00010BD30EE200A70479FED020A20EE000A6D
:1037E000704700000000001030380A2801D2012084
:1037F0007047002070470000FEF72AFCFFF70AFE22
:10380000FFF74EFBFFF718FB334C01221021204637
:10381000FEF70BFC012204213048FEF706FC4FF4B2
:10382000FA70FEF7E5FA0122D1032D48FEF7FDFB01
:10383000012208212046FEF7F8FB2A4D00226115DF
:103840002846FEF7F2FB0022A1152846FEF7EDFB05
:10385000002220212846FEF7E8FB0022A11428467A
:10386000FEF7E3FB002221152046FEF7DEFBFEF704
:103870002BFF1D48FDF792FFFDF70CFF4FF47A7107
:103880000020FDF755FF9FED190A0020FDF79CFF72
:103890004FF40050FDF73EFF0120FDF787FF0120A8
:1038A000FDF7C6FFFFF77EF91420FEF7A1FAFFF738
:1038B0005CFCFFF7C9FBFFF743FDFEF7BBFB0C49C0
:1038C00008610020FFF7D6F9FEF77CFFFEF736FF10
:1038D000FEF7E6FF30BFF7E700040240000C0240AD
:1038E0000000024000080240C068780400000000A8
:1038F0000000002010B500290AD00878002807D061
:1039000005487844FDF7B6FA002801D0002010BD24
:103910000248784410BD00003A0A0000320A000054
:103920000808A0F500114FEA3101704743004FEA43
:10393000D30C4FEA3C0C43401FBF40070CF16051D1
:1039400013F0FE4F70471CF0006F03D100200CF005
:10395000004170470CF0004343EA507010B540EA54
:10396000CC0000F00EF800BF000000924FEA00010A
:10397000FFF7D6BF4FF000414FF00000A1F5002146
:1039800070470EF1020E2EF0030E5EF8044B244237
:1039900004D44FEA4102B2F17F4F11D84FEA4003FD
:1039A000B3F17F4F0CD80ED14FEAD07CB2F17F4FEC
:1039B0000CEB4C0C0CF1020C08BF4CEBD17C04E07E
:1039C0004FF0080C01E04FEAD17C0CEB4C0324FAD9
:1039D00003F404F00704B4F1040C06D20EEB840CDB
:1039E000BDE810404CF0010C6047DFE80CF0070820
:1039F00002024FF00040A0F5800010BD08464200D2
:103A000018BFD2F1807288BF00F0004010BD4FF0A7
:103A10004070E1EE100A7047FCF787BF18430008BA
:103A200010430008144300080C4300080000000085
:103A3000000000000000000000000000000000F88E
:103A400000000000000000333000000000160E00EF
:103A5000160E0000000000000000000040C078408A
:103A6000C0784000043F04043F040400007088FC58
:103A700008300000001820FF211E0000F008F000B0
:103A8000E018000000211C031E211E0000F0088821
:103A9000700000001E2123241927211000000016A9
:103AA0000E0000000000000000000000000000E028
:103AB000180402000000000718204000000204184B
:103AC000E00000000040201807000000404080F0A7
:103AD000804040000202010F01020200000000F0DD
:103AE000000000000101011F0101010000000000B1
:103AF0000000000000B070000000000000000000A6
:103B000000000000000101010101010100000000AE
:103B10000000000000303000000000000000000045
:103B200080601804006018060100000000E0100822
:103B30000810E000000F102020100F00001010F8F7
:103B4000000000000020203F202000000070080836
:103B500008887000003028242221300000300888B6
:103B6000884830000018202020110E000000C020DE
:103B700010F8000000070424243F240000F80888FF
:103B8000880808000019212020110E0000E010888C
:103B900088180000000F112020110E0000380808BE
:103BA000C83808000000003F0000000000708808CE
:103BB00008887000001C222121221C0000E010084F
:103BC0000810E0000000312222110F00000000C0A8
:103BD000C00000000000003030000000000000C005
:103BE000C0000000000080B07000000000008040B5
:103BF000201008000001020408102000404040404E
:103C000040404000040404040404040000081020A0
:103C100040800000002010080402010000704808E5
:103C20000808F0000000003036010000C030C8284D
:103C3000E810E0000718272423140B000000C03808
:103C4000E0000000203C23020227382008F8888882
:103C500088700000203F202020110E00C03008088E
:103C600008083800071820202010080008F8080865
:103C70000810E000203F202020100F0008F888885E
:103C8000E8081000203F20202320180008F888882A
:103C9000E8081000203F200003000000C0300808A2
:103CA0000838000007182020221E020008F808002B
:103CB0000008F808203F210101213F20000808F8F2
:103CC000080800000020203F202000000000080815
:103CD000F8080800C08080807F00000008F888C0D5
:103CE00028180800203F20012638200008F8080086
:103CF00000000000203F20202020300008F8F800BD
:103D0000F8F80800203F003F003F200008F830C0CE
:103D10000008F808203F200007183F00E0100808BE
:103D20000810E0000F10202020100F0008F80808ED
:103D30000808F000203F210101010000E010080800
:103D40000810E0000F18242438504F0008F8888825
:103D500088887000203F2000030C30200070880805
:103D6000080838000038202121221C00180808F813
:103D7000080818000000203F2000000008F8080094
:103D80000008F808001F202020201F000878880065
:103D900000C83808000007380E010000F80800F8D5
:103DA0000008F800033C0700073C0300081868807F
:103DB0008068180820302C03032C30200838C800F5
:103DC000C83808000000203F200000001008080844
:103DD000C83808002038262120201800000000FEE6
:103DE000020202000000007F40404000000C30C092
:103DF00000000000000000010638C00000020202BE
:103E0000FE000000004040407F000000002010083D
:103E10000408102000000000000000000000000066
:103E20000000000080808080808080800002040884
:103E30000000000000000000000000000000808082
:103E4000808000000019242222223F2008F80080F0
:103E500080000000003F112020110E0000000080B3
:103E600080800000000E1120202011000000008042
:103E70008088F800000E112020103F200000808074
:103E800080800000001F222222221300008080F088
:103E9000888888180020203F2020000000008080B3
:103EA00080808000006B94949493600008F80080F8
:103EB00080800000203F210000203F200080989853
:103EC000000000000020203F2020000000000080B3
:103ED0009898000000C08080807F000008F80000F3
:103EE00080808000203F24022D302000000808F848
:103EF000000000000020203F202000008080808003
:103F000080808000203F20003F20003F0080800014
:103F10008080000000203F2100203F2000008080A2
:103F200080800000001F202020201F008080008053
:103F30008000000080FFA12020110E000000008002
:103F400080808000000E112020A0FF8080808000F3
:103F50008080800020203F21200001000000808020
:103F6000808080000033242424241900008080E015
:103F7000808000000000001F2020000080800000E2
:103F800000808000001F202020103F2080808000C3
:103F90000080808000010E300806010080800080D3
:103FA000008080800F300C030C300F0000808000F8
:103FB000808080000020312E0E3120008080800023
:103FC0000080808080818E701806010000808080D3
:103FD000808080000021302C222130000000000071
:103FE000807C020200000000003F40400000000012
:103FF000FF00000000000000FF0000000002027C43
:10400000800000000040403F000000000080404071
:10401000800000800000000000010100000000009E
:1040200000000000002F000000000700070000143F
:104030007F147F1400242A7F2A120023130864624D
:1040400000364955225000000007000000001C22E5
:104050004100000041221C000014083E0814000822
:10406000083E0808000000A06000000808080808D2
:10407000000060600000002010080402003E51496A
:10408000453E0000427F4000004261514946002108
:1040900041454B31001814127F1000274545453922
:1040A000003C4A494930000171090503003649497D
:1040B000493600064949291E000036360000000036
:1040C0005636000000081422410000141414141481
:1040D000000041221408000201510906003E495522
:1040E000592E007C1211127C007F49494936003E4E
:1040F00041414122007F4141221C007F4949494101
:10410000007F09090901003E4149497A007F0808FA
:10411000087F0000417F4100002040413F01007FB7
:1041200008142241007F40404040007F020C027F83
:10413000007F0408107F003E4141413E007F090995
:104140000906003E4151215E007F091929460046BB
:10415000494949310001017F0101003F4040403F92
:10416000001F2040201F003F4038403F00631408DC
:1041700014630007087008070061514945430000B7
:104180007F414100000204081020000041417F00EF
:1041900000040201020400404040404000000102CF
:1041A0000400002054545478007F484444380038B8
:1041B0004444442000384444487F00385454541840
:1041C00000087E0901020018A4A4A47C007F080452
:1041D00004780000447D4000004080847D00007F22
:1041E000102844000000417F4000007C041804783F
:1041F000007C0804047800384444443800FC24243B
:1042000024180018242418FC007C08040408004822
:104210005454542000043F444020003C4040207C43
:10422000001C2040201C003C4030403C0044281032
:104230002844001CA0A0A07C004464544C4400000E
:10424000087F41000000007F00000000417F08005F
:10425000000804081008000000000000000001022F
:10426000030406070809040000080000000000001D
:10427000000200010000100002400000000000A049
:104280000000000005400000000000C80000000021
:104290000C4000000000409C00000000194000009D
:1042A0000020BCBE0000000034400000BFC91B8ECF
:1042B00000000004B5400000504BCFD06607E2CFAD
:1042C000010000006C4100003E8251AADFEEA734DD
:1042D00001000000D9420000DCB5A0E23A301F978F
:1042E000FFFFFFFFB4450000FD25A0C8E9A3C14FB3
:1042F000FFFFFFFFFF3F0000000000800000000004
:10430000FF3F00000000008000000000493930003D
:10431000563930004930000056300000584300083C
:10432000000000203C000000C40100089443000885
:104330003C000020FC0A0000E00100081C00000016
:1043400043000000F8FFFFFF0C0000000E0000001B
:104350000F0000002E000000000000000000FF0120
:10436000010101000000000000000000000000004A
:10437000000000000000000000000000002000001D
:10438000C068780401000000100000000000000078
:044390000024F40011
:040000050800018965
:00000001FF
